:100000000C94DD020C94FA020C94FA020C941F2A50
:100010000C94FA020C94FA020C94FA020C94FA0270
:100020000C94FA020C94FA020C94EC120C94A812A0
:100030000C94FB230C94FA020C94FA020C94FA022E
:100040000C94FA020C94FA020C94FA020C94FA0240
:100050000C94FA020C94C5130C94FA020C94FA0254
:100060000C94FA020C94FA020C94FA020C94FA0220
:100070000C94FA020C94FA020C94FA020C94FA0210
:100080000C94FA020C94FA020C94FA020C94FA0200
:100090000C94FA020C94FA020C94FA020C94FA02F0
:1000A0000C94FA020C94FA020C94FA02076342369A
:1000B000B79BD8A71A39685618AEBAAB558C1D3CF9
:1000C000B7CC5763BD6DEDFD753EF6177231BF00BD
:1000D0000000803F08000000BE922449123EABAAF7
:1000E000AA2ABECDCCCC4C3E00000080BEABAAAA52
:1000F000AA3E00000000BF000000803F000000009A
:1001000000084178D3BB4387D1133D190E3CC3BDD2
:100110004282AD2B3E68EC8276BED98FE1A93E4C7F
:1001200080EFFFBE01C4FF7F3F00000000002B00F6
:1001300014001A00080015001700E0000400160063
:10014000070009000A00E1001D681B0006001900F5
:100150000500000000000000E20013502C002A00FF
:10016000130012000C0018001C00340033000F00B4
:100170000E000D000B00280038003700360010007C
:100180001100000000000000380002512C412B003B
:100190001E001F00200021002200E00000000000DF
:1001A000000000000000E10000000000000000006E
:1001B0000000000000000000E20001002C002A0006
:1001C000270026002500240023000000A9004F007E
:1001D0005200510050002800AA000000000000005A
:1001E0000000000000000000E60000002C003500C8
:1001F0001E001F00200021002200E0003A003B000A
:100200003C003D003E00E100400041004200430050
:100210004400000000000000E20010502C004C00E0
:1002200027002600250024002300310030002F0085
:100230002E002D003F004E004B004D004A004900AB
:100240004500000000000000E60010502C41350081
:1002500083005F00600061005600E00063005C0006
:100260005D005E005700E100620059005A005B002B
:100270002800000000000000E30012502C002A00BB
:1002800000000000000000000000145015500000A5
:100290000000000000002800000000000000000036
:1002A0000000000000000000E60010502C41290072
:1002B0001E001F002000210022001D0014001A0053
:1002C00008001500170005000400160007000900CB
:1002D0000A00000000000000060419002C000000C5
:1002E000130012000C0018001C000000A9000F00F1
:1002F0000E000D000B002800AA00000000001000F6
:100300001100000000000000E60010502C002B003F
:100310001E001F00200021002200E0003A003B00E8
:100320003C003D003E00E1001D001B0006001900DE
:100330000500000000000000E30003512C002A002B
:100340002700260025002400230031003000000093
:1003500000000000000028003800370036001000C0
:100360001100000000000000E60010502C4100DAEF
:100370000281FFD9F1DB20A4A62EAF00A0C000A10E
:10038000C800AED580A81FD300408D1420007F3F49
:100390001F643214783C1E000101010101010101BA
:1003A0000102020202020202020203030303030328
:1003B00003030404040404040405050505050606F6
:1003C00006060607070707070808080809090909B4
:1003D0000A0A0A0B0B0B0C0C0C0D0D0D0E0E0E0F5A
:1003E0000F0F1010111111121213131414151516EA
:1003F000161717181819191A1A1B1B1C1D1D1E1E5B
:100400001F202021222223242425262627282929AB
:100410002A2B2C2D2D2E2F303132323334353637D6
:1004200038393A3B3C3D3E3F4041424344454647D4
:1004300048494A4C4D4E4F50515354555658595AAD
:100440005B5D5E5F616264656668696B6C6D6F7051
:1004500072737577787A7B7D7E8082838587888AC0
:100460008C8E8F91939596989A9C9EA0A2A3A5A7F7
:10047000A9ABADAFB1B3B5B7BABCBEC0C2C4C6C9F3
:10048000CBCDCFD1D4D6D8DBDDDFE2E4E7E9EBEEAC
:10049000F0F3F5F8FAFDFF00AF00AE05010980A109
:1004A00001850319012AB700150126B700950175CA
:1004B000108100C0050C0901A101850419012AA0C1
:1004C00002150126A002950175108100C0050109E1
:1004D00006A1018506050719E029E7150025019504
:1004E00008750181020507190029EF1500250195FE
:1004F000F07501810205081901290595057501911D
:1005000002950175039101C005010906A1010507C6
:1005100019E029E71500250195087501810295016B
:10052000750881010507190029FF150026FF0095B0
:1005300006750881000508190129059505750191C1
:1005400002950175039101C009023B00020100A060
:10055000FA09040000010301010009211101000151
:10056000224000070581030800010904010001037E
:10057000000000092111010001226D00070582031E
:100580002000011201000200000008534601000192
:1005900000010200010C0343006F0072006E006551
:1005A000000000100366006F006F007300740061AC
:1005B000006E000000040309040011241FBECFEFE9
:1005C000DAE0DEBFCDBF14E0A0E0B1E0E8EAFFE58D
:1005D00002C005900D92A832B107D9F728E0A8E231
:1005E000B4E001C01D92A13AB207E1F70E942224B3
:1005F0000C94BC2F0C940000FC01AC014C5F5F4FCD
:100600008FEF91E32191822728E030E087FF09C036
:10061000880F892721503109C9F7E417F50791F7A9
:100620000895880FF7CFE8EDF0E080818E7F80831A
:100630001092E2001092DA001092E100A0EEB0E019
:100640008C9181608C9380818F77808319BCA7ED1A
:10065000B0E08C918E7F8C9380818F7E808310920E
:10066000680808952091E4003091E50095E6A9011D
:100670002091EC00822F817020FF06C08091E8005D
:1006800080FF06C080E008952091E80022FD1AC096
:1006900080918D08882389F0853089F08091EB0066
:1006A00085FD0FC02091E4003091E500421753070B
:1006B000F9F29150E1F684E0089582E0089583E034
:1006C000089581E00895EF92FF920F931F93CF93C7
:1006D0007C018B010E943203C82F811117C08091C9
:1006E000E80085FD0BC08091E8008E778093E800DC
:1006F0000E943203882399F3C82F08C0F701819123
:100700007F018093F1000150110949F78C2FCF919F
:100710001F910F91FF90EF90089580918F0887FFB0
:1007200013C08091E80082FF06C08091E8008B77BB
:100730008093E80004C080918D088111F2CF089564
:1007400080918D088823D9F38091E80080FFF8CF4D
:100750008091E8008E77ECCF982F9093E900242FBA
:10076000762F50E0891731F07091EC002091ED0068
:100770005091F00021FD07C09F5F973071F7809383
:10078000E90081E008953091EB003E7F3093EB006B
:100790003091ED003D7F3093ED003091EB00316002
:1007A0003093EB007093EC002093ED005093F00039
:1007B0002091EE0027FDE0CF80E00895CF92DF92F8
:1007C000EF92FF920F931F93CF93DF93C8EDD0E08A
:1007D00088818F7E8883E7EDF0E08081816080836F
:1007E00084E082BF81E08093680888818E7F88835F
:1007F00002EE10E0F80110821092DA0081EEC82EAD
:10080000D12CF601108288818F7788838881806857
:10081000888388818F7D888319BC10928D081092FF
:100820008E0810928C0810928B0890EEE92EF12C15
:10083000F70180818B7F808388818160888342E09B
:1008400060E080E00E94AC03F60180818E7F8083AF
:10085000F801808181608083808188608083F701D6
:1008600080818E7F8083888180618883DF91CF91B2
:100870001F910F91FF90EF90DF90CF900895FC01B2
:10088000809195089091960886179707A0F06115BA
:10089000710529F49091E8009E779093E80090E02C
:1008A0006115710551F4911108C08091E80082FF33
:1008B00034C080E00895BC01F2CF80918D08882378
:1008C000C1F18530C1F18091E80083FD30C0809195
:1008D000E80082FDEACF8091E80080FFE1CF8091BF
:1008E000F3002091F200382F6115710519F02830BE
:1008F000310558F091E02830310509F090E0209161
:10090000E8002E772093E800CBCF81918093F1000F
:10091000615071092F5F3F4FE7CF80918D08882389
:1009200041F0853041F08091E80083FFBECF81E047
:10093000089582E0089583E0089508950895089544
:1009400080916A08089587E797E79093010880935C
:10095000000888E19AE00FB6F894A89580936000AB
:100960000FBE90936000FFCF2FB7F89460915F089F
:100970007091600880916108909162082FBF08957E
:100980002091B0032223C9F02091630827FF15C0EE
:10099000E62FE695E695E695EE31D8F4E80FF92FC7
:1009A000F11D677021E030E001C0220F6A95EAF77F
:1009B00020958281282322830895FC01329608968F
:1009C0002191621303C0DF0111971C92E817F90708
:1009D000B9F708952091B0032223C1F02091630854
:1009E00027FF14C0E62FE695E695E695EE31F8F47C
:1009F000E80FF92FF11D677021E030E001C0220FF0
:100A00006A95EAF78281822B82830895FC013296EF
:100A10002FEF30E04191641751F02F3F19F441114D
:100A200001C0232F3F5F3630A9F72F3F09F4089507
:100A3000820F911D27FD9A95FC01628308952091F4
:100A40005C0830915D082817390771F090935D08B4
:100A500080935C08E0915A08F0915B08309721F090
:100A60000084F185E02D0994089520915808309173
:100A700059082817390771F090935908809358083E
:100A8000E0915A08F0915B08309721F00680F781D9
:100A9000E02D09940895FA01811101C0FB01099428
:100AA000E7EAF7E011828281846082830895809171
:100AB0004D08982F9E7F61F48170826080934D086D
:100AC00080915008893718F088E78093500808957E
:100AD0008C31B0F381708A61F1CFAF92BF92DF9217
:100AE000EF92FF920F931F93CF93DF93082F162F50
:100AF000E901E42FF0E0E956FC4F611110C0E491E8
:100B00005E2F4E2F4983E8835A83DF91CF911F9147
:100B10000F91FF90EF90DF90BF90AF900895E62E79
:100B2000F12C4491D42EE42FF0E026E0829FC00106
:100B300011242FEF30E0B9010E943B2B802F90E071
:100B4000880F991F55E5569FD001579FB00D11246E
:100B50008A1B9B0B982F990F890F5901AE18BF085C
:100B6000AE9ED001AF9EB00DBE9EB00D11245B2F86
:100B7000189F80011124012F11275901A01AB10AD1
:100B8000AE9E8001AF9E100DBE9E100D1124590126
:100B9000A81AB108AE9CC001AF9C900DBE9C900DF0
:100BA0001124892F9927281B390B2E9FC0012F9FB5
:100BB000900D3E9F900D1124E92F62307105A1F038
:100BC00050F46115710509F49DCF6130710581F014
:100BD000EB2F512F97CF6430710569F080F06630AC
:100BE000710509F48FCFF4CFE42F4B2F592F8ACF03
:100BF000E42F412F87CFEB2F542F492F83CF4B2F3B
:100C00005D2DE12F7FCF8091E70281111AC01092F4
:100C10009E0710929E08EEE5F7E080E090E0A0E8E5
:100C2000BFEB1182108282839383A483B5831782E2
:100C30001682389627E0EE39F20799F781E0809323
:100C4000E702089580919F0781110C94030608958F
:100C500080E0089578940895F894E82FE295EF7075
:100C6000F0E031A1282F2F7081E090E001C0880FC3
:100C70002A95EAF7982F9095932391A392A1892B17
:100C800082A30C942A069091630892FF06C0282F35
:100C900028712830F9F4877F846093FF06C0282FDD
:100CA00028712831F1F4877E84612091640820FF47
:100CB00006C0382F38713830D9F4877F816021FF22
:100CC00006C0282F28712831D1F4877E816194FDD8
:100CD000877E0895282F24712430F9F68B7F886051
:100CE000DCCF282F2471243101F78B7E8861DDCF82
:100CF000382F3171313019F78E7F8860E0CF282F7F
:100D00002171213121F78E7E8861E1CFCF93DF936E
:100D1000EC0182389105A9F1D8F58133910509F4E8
:100D200096C048F58932910509F48AC08A9709F47A
:100D300095C0C11522E5D20708F0B6C0C11531E54E
:100D4000D30708F026C1C83ED10508F09CC0C03EBC
:100D5000D10560F5C83AD10508F087C0C53AD1057C
:100D600008F0EFC0C130D10509F12097F9F0C43087
:100D7000D105E0F440C08533910509F45AC0C99704
:100D8000C1F680916308837089F0C0EED0E00EC098
:100D9000833E910599F170F4803E910501F1823E08
:100DA000910539F68091630882FD21C0CE01DF9163
:100DB000CF910895863E910561F1873E910571F1CD
:100DC000843E910509F0B5CF8091640881FFEECF94
:100DD00080916308C7EED0E084FD0DC0E7CF80911D
:100DE000630880FD07C19091640890FFDFCFC3EED8
:100DF000D0E084FFDBCFD0E0C0E0D8CF80916308A3
:100E000082FDFBC09091640890FDBFCF84FFCECFE0
:100E1000F2CF8091630883FDDDCFC8CF8091630856
:100E200083FDEEC09091640891FFF0CFC4EED0E056
:100E3000BDCF8091630885FFB9CFC9E2D0E0B6CFBE
:100E40008091630885FFB2CFC5E3D0E0AFCF80913A
:100E5000630886FFABCFCAE2D0E0A8CF80916308D9
:100E600086FFA4CFC1E3D0E0A1CFCF3BD10518F6D8
:100E7000C85AD0E0CC0FDD1FC952DC4F0990D88191
:100E8000C02DD46493CFC11540E5D40708F064C0E9
:100E9000C11580E4D80708F05CC0CE019A95811591
:100EA0009F4108F483CFA7CFC11536E5D30718F5C6
:100EB000C11545E5D40708F084C0C11584E5D807FD
:100EC00008F07AC09C2F969596959E012370332743
:100ED000C115D34508F462C0C1E0D0E002C0CC0F18
:100EE000DD1F2A95E2F730E2939FC0011124C82B41
:100EF000D92BDA685BCFC1158AE5D80778F4C1151C
:100F000099E5D90708F068C0C11528E5D20708F4AB
:100F100072CFDC2FCC27C06FD06A48CFCE0190565D
:100F20008115904208F067CF8D2F8F710E94430684
:100F300090E0982F882788279F719C012C2BE9012E
:100F400049C0C55AD0E0CC52DC4FC881D0E0D06453
:100F50002DCFDF70D06A2ACFCE01E4E09695879539
:100F6000EA95E1F783702C2F26952695237040E2B1
:100F7000249F90011124382B8C2F8370C1E0D0E086
:100F800002C0CC0FDD1F8A95E2F7C22BD32BDC68A1
:100F90000DCFDC2FCC27C16FD06A08CFC1E0D0E0E5
:100FA00002C0CC0FDD1F2A95E2F720E2929FC0011C
:100FB0001124C82BD92BEBCFDC2FCC27C46FD06AE0
:100FC000F5CE8C2F0E944306C82FD0E0DC2FCC2713
:100FD000CC27DF71D062EACE8C2F8F700E9443063F
:100FE00034E0D695C7953A95E1F7CF709C2FEC0188
:100FF000D069DCCEC9E3D0E0D9CEC2EED0E0D6CE07
:10100000C6EED0E0D3CE8091C60481111092C60402
:10101000089580959091C50498239093C5040895F0
:101020008091A20490917104981301C008958F5F7C
:101030008770FACFAF92BF92CF92DF92EF92FF927A
:101040000F931F93CF93DF93C0900605D0900705B1
:10105000E0900805F09009054091C7045091C8043C
:101060006091C9047091CA04C42AD52AE62AF72AD5
:10107000CFE1D0E0082F10E026E0929F000D111D77
:10108000112490E3A92EBC2ED701C6010C2E04C05A
:10109000B695A795979587950A94D2F780FD0FC0CE
:1010A000219788F7B12C8B2DDF91CF911F910F9154
:1010B000FF90EF90DF90CF90BF90AF900895AC9EDF
:1010C000F001AD9EF00D1124E00FF11FEE0FFF1F98
:1010D000E25DFE4F859194910E948606019701F38F
:1010E000E2CFCF93DF93EC010E941A08EC2FF0E0DF
:1010F00096E0D99FE00DF11D112490E3899FE00D4A
:10110000F11D1124EE0FFF1FE25DFE4F85919491BA
:10111000DF91CF910C948606E92FEE0FE90FEE0FC9
:101120008E0F982F977086958695869525E0829FDD
:10113000F0011124E35BFB4F50E040E080E021919F
:1011400030E0092E02C0369527950A94E2F7217007
:101150003327042E01C0220F0A94EAF7822B4F5F37
:101160005F4F4530510559F70895E92FEE0FE90F0C
:10117000EE0F8E0F982F977041E001C0440F9A95A3
:10118000EAF786958695869595E0899FF00111246A
:10119000E35BFB4F30E020E070E05191DF011197FD
:1011A000CB01022E02C0969587950A94E2F78170D2
:1011B00081958527842385278C932F5F3F4F25308A
:1011C000310559F70895FC01808191810E947108D1
:1011D00092959F70963091F058F4925F9F70923084
:1011E00058F4803F19F030F4883E30F481E00895DF
:1011F0009A5FF4CF843FD1F380E00895883EB0F346
:10120000813FD1F7F3CF80936508709367086093AF
:10121000660880918D08843001F582E08093E900B2
:101220008FEF9091E800815095FD06C095ED9A955D
:10123000F1F700008111F5CF8091E80085FF0DC026
:1012400050E040E063E070E085E698E00E946303D0
:101250008091E8008E778093E8000895BC0184E0D7
:101260000C940309BC0183E00C940309CF93DF9332
:10127000EC018091B0038823B1F18091630887FF6E
:1012800032C060E282E08093E9008FEF9091E80045
:10129000815095FD06C095ED9A95F1F700008111FA
:1012A000F5CF8091E80085FF1BC08091B00370E00E
:1012B00050E040E0811104C050E040E068E070E0A0
:1012C000CE010E9463038091E8008E778093E8004E
:1012D00080E2FE01ABE6B8E001900D928A95E1F75D
:1012E000DF91CF91089568E081E0CDCF6091AA03AE
:1012F00080914D0880FF20C08091A90343E0849F26
:10130000C00111248655984F539A2BB1277F3BB1CA
:1013100038605FB7F894FC01649FE00DF11D112463
:10132000BF0168177907D1F45FBF8FE594E001979B
:10133000F1F700C0000008958091AB039091AC03D9
:1013400023E0829FF0011124E655F84F8917A0F69B
:101350001182108212828F5F3396F8CFFC01419187
:10136000CF01E8E03BB9000000C047FF2BB9440FB4
:10137000000000C000C000C02BB900C0EA9591F782
:10138000D0CFEF92FF920F931F93CF93DF93EC0197
:101390008C81811109C081E08C8310924C0892E00D
:1013A0009093AF038093AE038091AB039091AC0315
:1013B00023E0829FF0011124E655F84F891768F168
:1013C00010E003E06091AD03161768F10E94760902
:1013D0008091AE0320914C08280F20934C089091E7
:1013E000AF03980F9093AF03191654F4022E000C1C
:1013F000330B4091AD034150550B2417350734F0A2
:1014000081958093AE03813009F41C82DF91CF91E6
:101410001F910F91FF90EF90089511821082128218
:101420008F5F3396CBCFE12EF12C70E0C7010E9485
:101430004F2B2091AB03820F482F50E020914C0896
:10144000022E000C330BE216F306D4F02091AF030A
:10145000022E000C330B2E153F0594F0809F900157
:1014600011242655384F40915008493708F048E775
:1014700060914F0880914E080E946D051F5FA2CFBA
:10148000FA01EE0FFF1FE40FF51FE655F84F11822A
:1014900010821282F3CFEF92FF921F93CF93DF93CC
:1014A000EC0110E0EE24EA94F12C6091AD031617E4
:1014B00070F00E9476099A818C8190FF2AC08F5F1C
:1014C0008C83DF91CF911F91FF90EF900895209131
:1014D000AB03422F410F5527551FCA019A01220F16
:1014E000331F280F391F2655384F40915008493770
:1014F00008F048E770E0C7010E944F2B962F8C81BF
:1015000060914F08199F800D11240E946D051F5F87
:10151000CCCF8150D5CF90914D0890FF14C09091C1
:10152000AB032091AC0333E0939FF0011124E65507
:10153000F84F921710F00C947609818360834283F0
:101540009F5F3396F6CF08950F931F93CF93DF934A
:1015500000D00F92CDB7DEB78C0180914D0880FF8F
:1015600013C040915008493708F048E79E012F5FAB
:101570003F4F60914F08F80184810E946D054B81B7
:1015800069818A810E948B0AF80184818F5F84833C
:101590000F900F900F90DF91CF911F910F910895B1
:1015A000EDE4F8E080818E7F80830E945005E7EAB9
:1015B000F7E08281816082832FEF80E792E0215003
:1015C00080409040E1F700C000000C9476099F92A3
:1015D000AF92BF92CF92DF92EF92FF920F931F9341
:1015E000CF93DF937C015B016A018091F70401E0F6
:1015F00010E08A3010F40AE010E0C1E0D0E0F89486
:10160000B501C701F6010995982E0E942A0691108E
:1016100004C021960C171D076CF4892DDF91CF9122
:101620001F910F91FF90EF90DF90CF90BF90AF9000
:101630009F900895CC9F9001CD9F300D300D1124C7
:1016400090E080E045E34A95F1F7000001968217AB
:101650009307C1F7D4CF8091D504811110C0809138
:10166000D80080618093D8008AE18A95F1F700C0A4
:101670008091D90080FF0AC081E08093D50481E089
:101680009091D504913009F080E0089582E0809334
:10169000D5040E94130310928D08F1CF0E942B0BEA
:1016A000882351F0E0915A08F0915B08309721F0BF
:1016B0000190F081E02D099480E008950F931F932D
:1016C0000E942B0B882321F01F910F910C94B404DE
:1016D0000E94B4040091F8041091F9042091FA04D6
:1016E0003091FB04600F711F821F931F1F910F9198
:1016F0000895CF92DF92EF92FF920F931F93CF93B3
:10170000DF936C017B0164E670E088E70E94762835
:10171000EC0197FD12C010E000E0F601E00FF11FB0
:10172000849164E670E00E94F028EC01892B29F492
:101730000F5F1F4F0E151F0581F70E947329CE0101
:10174000DF91CF911F910F91FF90EF90DF90CF909D
:1017500008958091560890915708911103C091E027
:1017600089270895882369F062E070E089E994E0B0
:101770000E94790B892B19F08091560808951092D8
:10178000560880915608EBCFCF93C09156088091B0
:1017900057088823D1F00E94B404605A75418F4FD6
:1017A0009F4F60935208709353088093540890930E
:1017B0005508C11108C062E070E087E994E00E941A
:1017C000790B892B29F0C09156088C2FCF91089561
:1017D00081E080935608F7CFCF92DF92EF92FF928D
:1017E0006B017C010E945705B701A60188E090E0DB
:1017F000FF90EF90DF90CF900C94E32BEF92FF924D
:101800000F931F93CF93DF9300D00F92CDB7DEB726
:10181000182FF62E042FE22E80914D0880FF3DC038
:10182000E82FE695F0E0E75EFB4F90819093A707E5
:101830008E7F8230E1F5493708F048E79E012F5F3F
:101840003F4F6F2D812F0E946D054B8169818A81E9
:101850000E948B0A80914E08811308C080914F0826
:101860008F1104C080915008801729F08091A9073A
:1018700082608093A90710934E08F0924F0800935E
:101880005008EE2051F060914D0870914E08809103
:101890004F08909150080E94EC0B0F900F900F9002
:1018A000DF91CF911F910F91FF90EF90089580915C
:1018B0004E08923011F0953069F6182FCBCFEDE439
:1018C000F8E0438120E2421B08F440E021E062811D
:1018D00081810C94FE0BEDE4F8E0438120E2420F9D
:1018E00008F44FEF21E0628181810C94FE0BEDE45E
:1018F000F8E0628120E2621B08F460E021E04381AD
:1019000081810C94FE0BEDE4F8E0628120E2620F2D
:1019100008F46FEF21E0438181810C94FE0BEDE42C
:10192000F8E0818121E04381628180510C94FE0BBB
:10193000EDE4F8E0818121E043816281805F0C94D5
:10194000FE0B80915108882319F081508093510833
:1019500060914D0870914E0880914F089091500809
:101960000C94EC0B80915108833018F48F5F8093B6
:10197000510860914D0870914E0880914F089091E8
:1019800050080C94EC0BEDE4F8E083E080831182C6
:101990008FEF828388E783831482A7EAB7E01296E9
:1019A0008C911297836012968C93608171818281F1
:1019B00093810C94EC0BCF9384E090E00E94BD2BBC
:1019C000C82F82E290E00E94BD2B982F8C2FCF91E0
:1019D000089569EE7EEF90E080E00E94EF2B60E0DA
:1019E00082E090E00E94D12B60E083E090E00E94D2
:1019F000D12B1092C7041092C8041092C9041092FF
:101A0000CA0460E084E090E00E94D12B60E082E2B2
:101A100090E00E94D12B60E085E090E00E94D12B05
:101A200060E086E090E00E94D12B6FEF87E090E0CD
:101A30000E94D12B40E050E0BA0188E090E00E9483
:101A4000E32B60E08DE090E00E94D12B40E050E07D
:101A5000BA0188E190E00E94E32B60E087E190E02A
:101A60000E94D12B40E050E0BA018CE190E00E944E
:101A7000E32B70E060E080E290E00E94EF2B40E01A
:101A800050E0BA0188E190E00E94E32B40E050E092
:101A9000BA018FE090E00E94E32B40E050E0BA01F1
:101AA00083E190E00C94E32B1F93CF93DF9300D05E
:101AB00000D0CDB7DEB74091DE045091DF046091D5
:101AC000E0047091E1042FB7F89480915F08909141
:101AD0006008A0916108B09162082FBF841B950B2C
:101AE000A60BB70B11E084369105A105B10570F185
:101AF0000E945E0B6E5F7F4F8F4F9F4F69837A838B
:101B00008B839C8380918A0290918B028E519B4F94
:101B10004091890250E04530510510F044E050E01A
:101B2000BE016F5F7F4F0E94B42B82E090E00E9465
:101B3000C52A182F882351F00E94B4046093DE0454
:101B40007093DF048093E0049093E104812F0F9061
:101B50000F900F900F90DF91CF911F910895CF9329
:101B6000DF93CDB7DEB728970FB6F894DEBF0FBE70
:101B7000CDBF85E0EDE4F8E0DE01119601900D9215
:101B80008A95E1F78091A7079091A807A091A907EE
:101B90008E839F83A88728854091F3045091F40495
:101BA0006091F5047091F6043FB7F89480915F0856
:101BB00090916008A0916108B09162083FBF841BBA
:101BC000950BA60BB70B84369105A105B10510F452
:101BD000222319F180919202909193028E519B4F92
:101BE0004091910250E04930510510F048E050E03A
:101BF000BE016F5F7F4F0E94B42B83E090E00E9494
:101C0000C52A882369F00E94B4046093F30470939A
:101C1000F4048093F5049093F6041092A90781E0F0
:101C200028960FB6F894DEBF0FBECDBFDF91CF91DF
:101C30000895EF92FF921F93CF93DF9300D000D0CF
:101C40000F92CDB7DEB77B0190E080E00E94C52AFD
:101C5000182F882309F487C040917C0250E0411579
:101C6000510511F041E050E060917D0270917E02DB
:101C70006E517B4FCE0105960E94B42B4091DA0441
:101C80005091DB046091DC047091DD042FB7F8946F
:101C900080915F0890916008A0916108B0916208FE
:101CA0002FBF841B950BA60BB70B84369105A1059E
:101CB000B10540F483EE94E00E94FC029D818917F7
:101CC00009F451C081E090E00E94C52A81111AC038
:101CD00010E08091D6049091D704A091D804B091DF
:101CE000D904F70180839183A283B383812F0F905E
:101CF0000F900F900F900F90DF91CF911F91FF9059
:101D0000EF9008954091840250E04530510510F065
:101D100044E050E060918502709186026E517B4FE5
:101D2000CE0101960E94B42B83EE94E00E94FC0247
:101D30009D818913CDCF0E94B4046093DA0470931F
:101D4000DB048093DC049093DD0489819A81AB816C
:101D5000BC818093D6049093D704A093D804B09309
:101D6000D90411E0B6CF8091E3049091E404A091EE
:101D7000E504B091E60489839A83AB83BC83111197
:101D8000E4CFA7CF8091C5049091C404892B8093A0
:101D90002A049091C6049923A1F0892B80932A04E8
:101DA0008091B0038823D9F18091630887FF37C001
:101DB0008EE1ECE2F4E090E0815098F591110E9400
:101DC000030840E250E064EA74E08AE294E00E9492
:101DD000A72B892B59F180E2EAE2F4E0A4EAB4E00F
:101DE00001900D928A95E1F7E0915A08F0915B0815
:101DF0003097E1F08091B003882359F08091630817
:101E000087FF07C080912A0480932B0486E080938B
:101E10002A040280F381E02D8AE294E0099486E0AE
:101E2000C8CF2191222341F29F5FC6CF089590E051
:101E300080E00E94350590E080E00E941F0510922E
:101E4000C4040C94C20E6093C7047093C8048093BA
:101E5000C9049093CA040C94170F1092C504809182
:101E6000B003ECE2F4E0882359F08091630887FF27
:101E700007C08EE1DF011D928A95E9F70C94170FD8
:101E800086E0F8CF1F93CF93DF93CDB7DEB7AA9745
:101E90000FB6F894DEBF0FBECDBF8FE898E020915B
:101EA000F100FC012193CF01F8E087399F07B9F7D2
:101EB00080919008833009F470C0B8F4813009F43F
:101EC00047C0823009F4B1C08091E80083FF7EC230
:101ED00080918F08909190089A3008F077C2E92F8E
:101EE000F0E0E254F04D0C94852B8A3009F48CC05C
:101EF0008B3009F46FC0893039F780918F088132B7
:101F000019F780919308909194080297E8F68091D0
:101F1000E800877F8093E8008091E80082FF38C066
:101F20009091F3008091F200029731F48091F100DA
:101F3000813011F0863021F48091F10080936A089D
:101F40008091E8008B778093E8000E948D03BCCFDE
:101F500080918F08813A09F0B7CF8091E800877FA0
:101F60008093E8008091930890919408892B61F404
:101F700060E28BE698E070E00E943F048091E80008
:101F80008B778093E800A0CF60E090E080E0F3CF13
:101F900080918D088111C0CF97CF80918F08813AB1
:101FA00009F092CF8091930890919408892B09F0C1
:101FB0008BCF8091E800877F8093E8008091E800D4
:101FC00080FFFCCF8091B0038093F1008091E80006
:101FD0008E77B9CF80918F08813209F075CF8091CB
:101FE000930890919408892B09F06ECF8091E800B6
:101FF000877F8093E8000E948D03809191088093F1
:10200000B0030E942D0F60CF80918F08813209F0BC
:102010005BCF8091E800877F8093E8000E948D036A
:1020200080919208809369084FCF80918F08813A00
:1020300009F04ACF8091E800877F8093E800809183
:10204000E80080FFFCCF80916908BECF803899F00E
:10205000823809F0BBC1809193088F70873008F0F7
:10206000B5C18093E9008091EB0085FB882780F95A
:102070001092E90006C080918B0890918C08911114
:1020800082609091E800977F9093E8008093F10040
:102090001092F1008091E8008E7794C1882309F4B2
:1020A00082C1823009F092C180919108811185C16D
:1020B000809193088F702FEF280F263008F086C18B
:1020C0008093E9002091EB0020FF77C1933031F439
:1020D0008091EB0080628093EB006FC19091EB00E8
:1020E00090619093EB0021E030E001C0220F8A95CF
:1020F000EAF72093EA001092EA008091EB008860F2
:10210000EACF811163C1109191081F778091E3009C
:102110008078812B8093E3008091E800877F809313
:10212000E8000E948D038091E80080FFFCCF809141
:10213000E30080688093E30082E0111183E08093E4
:102140008D0844C18058823008F040C180919108C8
:10215000909192088C3D23E09207A1F583E08A8359
:102160008AE289834FB7F894DE01139620E03EE0BF
:1021700051E2E32FF0E050935700E49120FF03C0B9
:10218000E295EF703F5FEF708E2F90E0EA30C0F085
:10219000C7968D939D932F5F243159F74FBF809140
:1021A000E800877F8093E8006AE270E0CE01019644
:1021B0000E943F048091E8008B778093E80006C17D
:1021C000C096E7CF4091930850919408292F332768
:1021D0002330310509F444C078F52130310509F484
:1021E0006FC08BE390E0E8E4F5E02230310509F0C0
:1021F000EDC02091E800277F2093E800209195080A
:10220000309196088217930708F49C0140E021154D
:10221000310509F064C0411162C08091E80082FD7F
:10222000C9CF80918D08882329F2853019F28091D9
:10223000E80083FFF2CFBECF21323105A9F122326F
:10224000310509F0C3C04115510509F443C04130BF
:10225000510509F0BBC08DE690E0EBE9F4E0C9CF91
:10226000992781309105C1F0009759F0029709F044
:10227000ADC0E5E9F5E0E4918E2F90E0E5E9F5E009
:1022800007C0E5EBF5E0E4918E2F90E0E5EBF5E09B
:10229000009709F49BC0ADCFE3EAF5E0E4918E2FFF
:1022A00090E0E3EAF5E0F4CF4115510571F04130DB
:1022B000510509F08BC089E090E0E3E7F5E099CFA4
:1022C00082E190E0E3E8F5E094CF89E090E0EAE590
:1022D000F5E08FCF80E490E0E8E0F5E08ACF8091F0
:1022E0008D08882309F466CF853009F463CF809187
:1022F000E80083FD5FCF8091E80082FD8ECF809162
:10230000E80080FF84CF9091F3008091F2002115C6
:10231000310519F08830910550F041E0089709F037
:1023200040E08091E8008E778093E80070CF449180
:102330004093F1003196215031090196E8CF803861
:1023400009F044C08091E800877F8093E800809185
:102350008E088093F1009ECE811138C010919108B3
:102360001230A0F58091E800877F8093E8001093F9
:102370008E080E948D03112311F084E005C0809126
:10238000E30087FDFACF81E080938D0842E061ECA5
:1023900081E00E94AC0342E261EC82E00E94AC0367
:1023A00080918D0813C080919108813079F481E08B
:1023B000933009F080E080938C081092E9008091BE
:1023C000E800877F8093E8000E948D038091E800F9
:1023D00083FF0AC08091E800877F8093E8008091A6
:1023E000EB0080628093EB00AA960FB6F894DEBFF4
:1023F0000FBECDBFDF91CF911F910895882321F0AB
:102400000E9409080C94C20E0895882339F0909117
:10241000C504982B9093C5040C94C20E089588238C
:1024200041F19CEF980F913A38F4682F8AE294E0DA
:102430000E94C0040C94C20E90E2980F983050F4A1
:10244000877091E001C0990F8A95EAF7892F0E9461
:102450000908F0CF9BE5980F933020F490E080E0DE
:102460000C943505885A873120F490E080E00C9474
:102470001F050895CF93C82F882309F467C08CEFF8
:102480008C0F813AC0F58091B003882311F18091BF
:10249000630887FF1EC0EC2FE695E695E695F0E011
:1024A000E65DFB4F828190E04C2F477021E030E0E9
:1024B00002C0220F331F4A95E2F782239323892B10
:1024C00091F06C2F8AE294E00E94C0040E94C20E38
:1024D0000AC0ECE2F4E082E394E02191C21789F3B0
:1024E0008E179F07D1F76C2F8AE294E00E94EA04CE
:1024F000CF910C94C20E80E28C0F883068F4C770C4
:1025000021E030E001C0220FCA95EAF78091C504AE
:10251000822B8093C504ECCFEBE5EC0FE33040F465
:10252000F0E0EC52FC4F808190E0CF910C943505A7
:10253000C85AC73158F4EC2FF0E0EE0FFF1FE952F4
:10254000FC4F80819181CF910C941F05CF9108950C
:102550001F920F920FB60F9211242F933F934F9318
:102560005F936F937F938F939F93AF93BF93CF931B
:10257000DF93EF93FF93D091E900DF708091EC003F
:10258000C82FC17080FDC0E81092E9008091F00072
:10259000877F8093F00078940E94420F1092E900A8
:1025A0008091F00088608093F000CD2BCF70C093B5
:1025B000E900FF91EF91DF91CF91BF91AF919F9192
:1025C0008F917F916F915F914F913F912F910F90DC
:1025D0000FBE0F901F9018951F920F920FB60F927B
:1025E00011242F933F934F935F936F937F938F9318
:1025F0009F93AF93BF93EF93FF938091E10082FF8E
:1026000009C08091E20082FF05C08091E1008B7FCC
:102610008093E1008091DA0080FF24C08091D8008F
:1026200080FF20C08091DA008E7F8093DA00809155
:10263000D90080FF9DC080E189BD82E189BD09B4D8
:1026400000FEFDCF81E080938D08809168088111A4
:1026500009C00E9413030E94DE038091E20084609F
:102660008093E2008091E10080FF17C08091E2003A
:1026700080FF13C08091E2008E7F8093E200809102
:10268000E20080618093E2008091D80080628093B4
:10269000D80019BC85E080938D088091E10084FF0B
:1026A0002BC08091E20084FF27C080E189BD82E1D8
:1026B00089BD89B5982F917080FFFBCF8091D8009C
:1026C0008F7D8093D8008091E1008F7E8093E10020
:1026D0008091E2008F7E8093E2008091E200816031
:1026E0008093E20080918E08882309F447C084E03B
:1026F00080938D0880918D088091E10083FF27C031
:102700008091E20083FF23C08091E100877F809366
:10271000E10082E080938D0810928E088091E100A4
:102720008E7F8093E1008091E2008E7F8093E200B3
:102730008091E20080618093E20042E060E080E00E
:102740000E94AC038091F00088608093F000FF91BC
:10275000EF91BF91AF919F918F917F916F915F9119
:102760004F913F912F910F900FBE0F901F90189592
:1027700019BC10928D081092680874CF8091E30004
:1027800087FD93E090938D08B5CF78941F921FB684
:102790001F9211248F939F93AF93BF9380915F08F3
:1027A00090916008A0916108B09162080196A11D06
:1027B000B11D80935F0890936008A0936108B09367
:1027C0006208BF91AF919F918F911F901FBE1F9084
:1027D00018959C014FB7F89480915F08909160081C
:1027E000A0916108B09162084FBF821B930B0895BE
:1027F0002FB7F89480915F0890916008A0916108CC
:10280000B09162082FBF08950F931F93CF93DF936A
:10281000C62FD42F022FFC0182818823A1F0609360
:1028200099080E94F8139093980880939708C770AE
:1028300081E001C0880FCA95EAF7DF91CF911F911F
:102840000F910C94051280919908681338C08091FB
:102850009708909198080E94E913883C910578F5B3
:1028600010E21D0FCD17B9F080E28C0F883040F4D4
:10287000C77081E001C0880FCA95EAF70E94FE1177
:10288000183048F481E09D2F977001C0880F9A9509
:10289000EAF70E940512802F0E943A12802F0E94B0
:1028A0000F12183098F4D77081E001C0880FDA95C4
:1028B000EAF7DF91CF911F910F910C94FE11C77031
:1028C00081E001C0880FCA95EAF7F3CFDF91CF917D
:1028D0001F910F910895CF9380919F08811137C068
:1028E00090E080E00E94CB2B893E9E4F11F00E9429
:1028F000E90C87E090E00E94BD2BC82F8093A008D0
:10290000EEE5F7E080E090E0A0E8BFEB11821082F6
:1029100082839383A483B58317821682389627E037
:10292000EE39F20799F780919F08811103C081E089
:1029300080939F080E940306C0FF06C063E070E01A
:102940008FEA92E00E945315CF910C94F813CF9127
:1029500008957F928F929F92AF92BF92CF92DF9213
:10296000EF92FF920F931F93CF93DF934B015C0184
:102970007A018091A00880FF6CC080919F0881112E
:1029800002C00E946B1420E030E0A901C501B4012F
:102990000E94052C87FF04C0B7FAB094B7F8B09432
:1029A00070909E07872D8150990B6C01EC01CF3FF1
:1029B000DC07C9F581E0870D893008F471C088E033
:1029C00080939E078EE597E028E0FC013896DC01B5
:1029D00001900D922A95E1F7089627E08639920733
:1029E00099F781E080939E08C0919E07C150DD0B4E
:1029F0000E94F813FE0123E0EE0FFF1F2A95E1F776
:102A0000E25AF84F9183808382829382A482B582B6
:102A1000F782E6820E94F8138091E7028823C9F0CA
:102A20001092E70216C08E0133E0000F111F3A9595
:102A3000E1F7025A184FA5019401F80162817381F0
:102A4000848195810E94052C811128C0CC15DD055B
:102A500074F0DF91CF911F910F91FF90EF90DF9075
:102A6000CF90BF90AF909F908F907F9008952196C8
:102A700088E0F8013896D80101900D928A95E1F727
:102A80000E94F813F8019187808782869386A48636
:102A9000B586F786E686085F1F4FD8CF219787CF88
:102AA00080939E079ECFCF93DF93EC018091A00887
:102AB00080FD04C0DF91CF910C94030680919F08A4
:102AC000811102C00E946B1480919E0881110E94A6
:102AD0000306D0939D08C0939C0810929B08109207
:102AE0009A086C817D818E819F810E947C2C9B0144
:102AF000A0E6BAEE0E948B2B20E03EE140E050E0E1
:102B00000E94632B688179818A819B81A9010E943F
:102B1000A914DF91CF910C94F81381E08093A00762
:102B200068E070E088E693E00C9453150E9422065A
:102B300010929F0768E070E088E293E00C945315D0
:102B400081E080939F0768E070E088EE92E00C944B
:102B5000531562E070E087ED92E00E9453152FEF6D
:102B600081EE94E0215080409040E1F700C00000E9
:102B70000E9403066091A0086E7F6093A00887E022
:102B800090E00C94D12B6091A00861606093A00844
:102B900087E090E00E94D12B62E070E087EC92E049
:102BA0000C9453158554990BBC01990F880B990B04
:102BB0000E94AD2C20E030E040E451E40E940A2C59
:102BC0009B01AC0160E070E080E090E40E94CA2DBF
:102BD00020E030E04CED53E40E945D2D4FEF5FEFBD
:102BE0000C94A914CF92DF92EF92FF920F931F9350
:102BF000CF93DF93C82F80919E08882309F474C077
:102C000080919F08811102C00E946B148C2F855403
:102C1000990BBC01072E000C880B990B0E94AD2C60
:102C200020E030E040E451E40E940A2C9B01AC011A
:102C300060E070E080E090E40E94CA2D20E030E087
:102C40004CED53E40E945D2D6B017C010EE517E015
:102C5000C7E0D0E0A7019601F80162AD73AD84AD85
:102C600095AD0E94052C811138C083E0CC0FDD1F8B
:102C70008A95E1F7C25AD84F1982188280E090E015
:102C8000A0E8BFEB8A839B83AC83BD831F821E8237
:102C9000AC01BD01F7E0C639DF0769F480919E07FA
:102CA000815080939E0781111FC081E08093E702CD
:102CB00010929E0819C088E0FE013896DE0101904E
:102CC0000D928A95E1F7198618864A875B876C878B
:102CD0007D871F861E862896DDCF21970850110913
:102CE000CF3FDC0709F0B6CFDF91CF911F910F9155
:102CF000FF90EF90DF90CF9008950E942B0B8111F1
:102D00000C94F8130E945E0BCB01089560914D085E
:102D1000669570E041E050E088EA93E00E949A2BCB
:102D2000892B19F481E08093A8070E947D16909367
:102D3000A2078093A1078091A90784608093A907C7
:102D4000089590914D0890FF3BC0917081112EC065
:102D5000926090934D088091A90781608093A907A4
:102D6000662351F060914D0870914E0880914F0894
:102D7000909150080E94EC0B60914D08669570E0B0
:102D800041E050E088EA93E00E949A2B892BA9F059
:102D90000E94500581E08093A40720E040915008F4
:102DA00060914F0880914E080C94FE0B8E3010F00D
:102DB0009A61CFCF880F982BCCCF0E948616EACF8E
:102DC000089580914D088695815009F48DE061E069
:102DD0000C94A11680914D0886958F5F8E3008F077
:102DE00081E061E00C94A11690914D0890FF07C01E
:102DF0009695981720F0961710F40C94EA1661E057
:102E00000C94A116CF92DF92EF92FF92CF936B01B9
:102E10007C01C701AA27BB27C0E10097A105B10526
:102E200019F4D701CB01C0E0492F5A2F6B2F772718
:102E3000411551056105710519F0C85FDB01CA0133
:102E4000AC01BD01E4E07695679557954795EA9505
:102E5000D1F7411551056105710519F0CC5FDB0112
:102E6000CA01AC01BD0132E076956795579547954B
:102E70003A95D1F7411551056105710519F0CE5FFD
:102E8000DB01CA01B695A79597958795892B8A2B63
:102E90008B2B09F0CF5F60E081E00E94A116C23069
:102EA00031F148F4CC2381F0C13099F020E04FEFAC
:102EB0006FEF85E512C0C330F1F0C430B9F720E000
:102EC0004FEF6FEF8AEA09C020E040E060E080E069
:102ED00004C020E04FEF6FEF8BE20E94FE0BC701B2
:102EE000B601CF91FF90EF90DF90CF90089520E052
:102EF0004FEF6FEFECCF20E04FEF6FEF80E8EDCFBB
:102F00000E940217609306057093070580930805D9
:102F1000909309050C94170F0F931F9341E050E015
:102F200060E070E004C0440F551F661F771F8A954C
:102F3000D2F7CB01BA01609570958095909500917C
:102F400006051091070520910805309109056023B9
:102F50007123822393231F910F910C9480179091DA
:102F6000A304809589238093A304282F277091F4CC
:102F7000282F082E000C330B9217130659F090914E
:102F8000640892FD07C08595859585950E948C17EC
:102F90001092A3040895CF93C0916408C2FB9927AF
:102FA00090F9981799F080FBC2F9C093640860917A
:102FB000630884E090E00E94D12B6C2F82E290E0C5
:102FC0000E94D12B82E0CF910C94AF17CF9108953E
:102FD0000F931F9341E050E060E070E004C0440FA5
:102FE000551F661F771F8A95D2F78091060590912D
:102FF0000705A0910805B09109058A019B01082BDE
:10300000192B2A2B3B2BC901B8011F910F910C944E
:1030100080177F928F929F92AF92BF92CF92DF9252
:10302000EF92FF920F931F93CF93DF93CDB7DEB74D
:103030002C970FB6F894DEBF0FBECDBF8E010F5F89
:103040001F4F88E0D8011D928A95E9F787E0C82EC6
:1030500084E0D82EF12CE12CAA24A394B12C21E1F8
:10306000822E24E0922EF60181916F018F3F09F4A8
:1030700043C0F894E82FE295EF70F0E021A18F7043
:10308000A50102C0440F551F8A95E2F7CA01922F8D
:10309000982B91A392A18095892382A30E942A064E
:1030A00000C0EBE0F4E0712C31E021912F3F09F4F6
:1030B0007DC0A22FA295AF70B0E090968C9190E069
:1030C0002F7002C0959587952A95E2F780FD6EC016
:1030D000832F782A330F8E169F0639F7F601319722
:1030E00080818F3F11F00E942C0650EA5A95F1F72B
:1030F000F801EE0DFF1D70828FEFE81AF80AA4E0C8
:10310000EA16F10409F0AFCF48E050E0B8018CEFC7
:1031100094E00E94A72B7C01892B41F088E0F80104
:10312000ACEFB4E001900D928A95E1F7109105059E
:10313000E114F104E9F181E08093CD040E94F813D9
:103140009093CC048093CB048091CB049091CC04D9
:103150000E94E913059790F0E12FF0E0E35FFA4F4A
:103160008091FC0480838091FD0481838091FE0422
:1031700082838091FF0483831092CD0481E090E0EC
:10318000EF28D1F02C960FB6F894DEBF0FBECDBF5E
:10319000DF91CF911F910F91FF90EF90DF90CF9033
:1031A000BF90AF909F908F907F90089580E091CFD7
:1031B0008091CD048111C8CF0E942B0BF82EE09195
:1031C0000505882309F476C019861A861B861C8695
:1031D0000E2F10E0035F1A4F8091F7048A30A0F59C
:1031E00049E15EE0BE01675F7F4FC8010E94E70AC8
:1031F0008823C9F144E55DE0BE01675F7F4FC801E8
:103200000E94E70A882379F14FEA5DE0BE01675F1B
:103210007F4FC8010E94E70A882329F11092F70422
:103220008091040590E044E050E0BE01675F7F4F6D
:10323000835F9A4F0E94A72B21E02093D404892B0F
:1032400059F5F12C8F2D9ECF8091CE049091CF0413
:103250000E94E913843F914018F68091D4048111B3
:1032600012C080E08FCF8091F7048F3F29F08F5FED
:103270008093F7048A30A0F20E94F8139093CF0451
:103280008093CE04EACFFE01399684E0DF011D92DF
:103290008A95E9F71092D404E0910405F0E0E35F29
:1032A000FA4F89859A85AB85BC8580839183A283FB
:1032B000B383C8CFF0E0E35FFA4FF89484E0A3EE65
:1032C000B4E001900D928A95E1F783EE94E00E94BC
:1032D000FC028093E2040E942A06F894C090E7045E
:1032E000D090E804E090E904F090EA048091D004E2
:1032F0009091D104A091D204B091D304C816D906FC
:10330000EA06FB06D1F0C092D004D092D104E0923C
:10331000D204F092D3040E942B0B81110EC00E94A4
:10332000B404C61AD70AE80AF90AC092F804D0927F
:10333000F904E092FA04F092FB040E942A06F89441
:103340008091F204882379F180FF0DC08091EB0415
:1033500080FF2CC090914D08916090934D0860E0E3
:1033600086950E94A1168091F20481FF09C020E099
:103370004091EE046091ED048091EC040E94FE0BFC
:103380008091F20482FF06C08091F104882389F0C5
:103390000E9486168091F20483FF03C081E080932F
:1033A000A4071092F2040E942A065BCF0E94D00A62
:1033B000DACF0E945005EECF4F925F926F927F92CC
:1033C0008F929F92AF92BF92CF92DF92EF92FF9235
:1033D0000F931F93CF93DF93CDB7DEB7A8970FB6A8
:1033E000F894DEBF0FBECDBF7C01DC0113968D913A
:1033F0009C911497892B41F01C911196DC90812FA0
:103400008D218F3F09F065C6A8960FB6F894DEBFF0
:103410000FBECDBFDF91CF911F910F91FF90EF9025
:10342000DF90CF90BF90AF909F908F907F906F90E4
:103430005F904F9008950E941A08082F682F898185
:103440009A810E94B508E12FF0E0B6E0DB9EE00D26
:10345000F11D112420E3029FE00DF11D1124EE0F58
:10346000FF1FE25DFE4F059114910D313CE51307FE
:1034700081F5D70112968C91882309F4C6C00E9469
:10348000C3158091A304877009F4BECFD7011296AB
:103490008C91882309F4B8CF8091640882FDB4CF61
:1034A00082E0A8960FB6F894DEBF0FBECDBFDF91C5
:1034B000CF911F910F91FF90EF90DF90CF90BF9031
:1034C000AF909F908F907F906F905F904F900C94F3
:1034D000AF170E31BCE51B0741F4F7018281882349
:1034E00009F493C00E94A915CCCF0F31FCE51F074A
:1034F00059F4D70112968C91882309F486C08091E3
:10350000A00880FDEFCFBBCFC8018A529C4502972F
:1035100060F4F7018281882309F477C064E070E0E9
:1035200080E091E00E945315ACCF0632FCE51F0706
:1035300049F4D70112968C91882309F466C00E9441
:10354000A0159FCF0732BCE51B0741F4F70182812C
:10355000882309F45AC00E94961593CF0832FCE5DF
:103560001F0759F480919F07D70112969C919923C8
:1035700009F44BC08111EFCFE2CF0C32BCE51B0741
:1035800041F4F7018281882309F43FC00E948D1520
:1035900078CF0D32FCE51F0761F4D70112968C91AC
:1035A000882399F11092A00768E070E080E291E032
:1035B000B9CF0E32BCE51B0749F4F701828188239D
:1035C00021F18091A0078111EDCFE0CF0932FCE518
:1035D0001F07D9F4D70112968C918823B1F00E946D
:1035E00022062091000230E02F5F3F4F23703327E7
:1035F0002093000248E2429FC001439F900D112496
:1036000065E070E0805A9E4F8DCF20919F07211179
:103610007DC08091A007811179C0043FBCE51B07E4
:1036200009F439C1A8F4093DFCE51F0709F42FC1CD
:103630000A3D2CE5120709F43AC1083D3CE51307A1
:10364000A9F426E241EE61EEC7010E94041419CFED
:10365000063F4CE5140709F426C108F420C127E20F
:1036600045EE66EE073F9CE5190771F3D701129608
:103670008C91882309F440C5109299080430BDE567
:103680001B0708F017C10B3FECE51E0730F4C8011B
:1036900082509C45449708F017C10E94DB0C909320
:1036A00064088093630801313CE5130709F4F0C115
:1036B00008F058C109308CE5180709F4BDC108F0BD
:1036C0002DC10530ACE51A0709F4AEC108F013C1ED
:1036D0000330ECE51E0709F49DC108F0A1C18091FB
:1036E0006308816002301C4509F497C1609163084A
:1036F0001091640884E090E00E94D12B612F82E257
:1037000090E00E94D12B0E942D0FBBCED7011296C4
:103710003C91332309F44AC0003E110561F40E9434
:10372000220681E080934B0410924A0410923205E5
:1037300010922E05A6CE023E110571F40E942206BB
:1037400080914B04882319F081E080934A04109201
:103750004B041092320595CE033E110591F48091F1
:103760004A04882319F10E94220610924B0481E03A
:103770008093320510922F0510923105109230057A
:1037800080CE8091A6029091A7020A97023511057A
:1037900041F00135110551F48091A6029091A702E4
:1037A0000A969093A7028093A6026BCE80910002A6
:1037B00081110EC0F701418188E090E0841B9109DE
:1037C000D080F0E1DF0E4CE0849FD00C112411C0BA
:1037D000813051F5D70111964C91119788E090E016
:1037E000841B9109D82EDD0CDD0CD80E8C918D5CDC
:1037F000D80E332309F445C0222319F08D2D0E94E1
:10380000D21580914B04882351F080912E05E82F2A
:10381000F0E0E25EFA4FD0828F5F80932E050F3F7B
:10382000110508F0FACE2DCE823059F4F70141810E
:1038300088E090E0841B9109D080F3E3DF0E47E03D
:10384000C3CF6CE0D62E8330A1F683E2E1EBF3E048
:10385000DE01119601900D928A95E1F7D701EC9166
:10386000EC0FFD2FF11D11964C9188E090E0841B28
:103870009109D084BCE08B9FD00C1124E9E0DE0ECE
:10388000B8CF222361F28D2D0E94F215C8CF27E216
:1038900045EE65EED9CE26E241EE60EED5CE27E2CA
:1038A00045EE64EED1CE26E241EE62EECDCE28E2C8
:1038B00041E0EFCF0236FDE51F0709F4EECE063AF0
:1038C0002DE5120709F4E9CE0631ECE51E0709F0F3
:1038D00022C48091C5048A7A91E009F490E0909323
:1038E0004C0469E2811165E38AE294E00E94EA04F3
:1038F0000E94C20EC6CD80916308806207303CE50D
:10390000130709F48AC080916308806108301C4560
:1039100008F483C08091630880647FC00D308CE51B
:10392000180709F4A9C058F40B30ACE51A0709F4DC
:103930009FC008F487C0809163088D7F6EC080911E
:1039400063088F7E0F30ECE51E0709F466C0809196
:103950006308877F00311C4508F45FC080916308CD
:103960008F7D5BC00E3F2CE5120709F48DC038F542
:1039700005314CE5140709F4A9C080F403319CE536
:10398000190709F48FC008F487C00E942D0F909189
:103990006308892F97FB87F980583FC00C3FBCE52F
:1039A0001B0709F445C008F06BC080916408816072
:1039B0000B3F1C4509F09ACE8093640897CE0230E5
:1039C0002DE5120709F492C0A8F401154DE514077E
:1039D00009F472C008F442C080916408982F909551
:1039E00091708E7F892B90FB81F98093640881FF11
:1039F00068C039C002369DE5190709F47DC0063A52
:103A0000ADE51A0709F47FC003301D4509F06ECEFD
:103A100060E06DC08091630882608093630866CE29
:103A2000809163088460F9CF809163088860F5CF46
:103A3000809164088260C0CF0E942D0F809163083E
:103A40008068EBCF809163088C608093630864E0AA
:103A500070E081E492E00E94531548CE80916408A2
:103A600083608093640864E070E081E292E0F3CFC9
:103A7000809163088E7FD1CF809163088B7FCDCFFB
:103A8000809164088E7F98CF809164088D7F94CF59
:103A9000809163088F7BC1CF0E942D0F80916308B6
:103AA0008F77BBCF80916308837F8093630862E048
:103AB00070E081E192E0CFCF809164088C7F8093A9
:103AC000640862E070E081E092E0C5CF8091630815
:103AD00082FB992790F921E0922790FB82F990FBD5
:103AE00083F98093630883FFE2CFB1CF61E08EE07A
:103AF00090E00E94D12BFACD90916308892F8F7EA0
:103B000094FF80618ACF90916308892F8E7F90FF08
:103B1000816083CF816080934D0861E086950E942B
:103B2000A116AFCC41EE56E16AEE76E10E944B055C
:103B3000A8CC4AEE56E161EE76E1F8CF48E95CE0C8
:103B40006FE87CE0F3CF47E75CE063E87CE0EECF32
:103B500043E85CE067E77CE0E9CF4FE55CE06BE6DB
:103B60007CE0E4CF41EA5CE062EB7CE0DFCF42EB5B
:103B70005CE061EA7CE0DACF61E081E0D0CF6AE02E
:103B800085E00E94F4167DCC0E942D0F0E94220633
:103B90000E94F8138C0163E070E081E692E00E94DD
:103BA0005315C8010E94E9138A3F910520F00E9435
:103BB00003060E94A3048FE99FE00197F1F700C07C
:103BC0000000EFCF81E0C7C280E0C5C2812F902FF7
:103BD0000E948C08D82ED2C2E12FEF70CE2E107F1B
:103BE00019F0C29420EFC222DD20B9F0CC2069F098
:103BF00080E2800F883010F0811009C08091C504E8
:103C0000C82AC092C5040E94C20E802F4EC0809167
:103C1000C404C82AC092C404F6CF802F0E940F1299
:103C2000CC2009F444C0005E083010F0811004C0BC
:103C30008C2D0E94090806C0C0948091C404C8223B
:103C4000C092C4040E94C20E32C0F12FFF70CF2E6A
:103C5000107F103219F0C29490EFC9228820A1F091
:103C600021E0821609F48BC0DD2009F495C099206B
:103C700009F48BC0D70115968C91159780FFC5CF9D
:103C80008F7015968C9381C02091640822FF54C0D8
:103C9000DD2009F44AC0CC2039F08091C504C82A3F
:103CA000C092C5040E94C20E80E00E943A12AA2D62
:103CB000A850BB0B149710F40E944E0BBB20A9F028
:103CC0008091A30480FD11C0F7011282859585952E
:103CD00085950E94E817C7010E94DC198091A30412
:103CE0008595859585950E948C1785E0F701DE0105
:103CF000949601900D928A95E1F78CA19DA10E9466
:103D00008C089DA1ECA1F0E026E0929FE00DF11D52
:103D1000112430E3839FE00DF11D1124EE0FFF1FEE
:103D2000E25DFE4F859194916FCB80E00E940F126F
:103D3000CC2009F4BCCF7CCFDD20A1F09091C6044B
:103D40008C2D892B911003C00E940512B0CF31E059
:103D50009312FACF22FDABCF981709F4A8CF809326
:103D6000C604A5CF911006C00E9403088C2D0E94A6
:103D7000FE119DCF41E0941609F499CFF5CFDD20D7
:103D800031F085E0891508F492CF8C2DDDCF94E0D9
:103D9000991508F48CCFEACF992041F3B9E38B123F
:103DA00009C0EFEFF7EE23E0E150F0402040E1F7EB
:103DB00000C00000802F0E940F1279CF812F8695BE
:103DC0008695837061F0813009F071CFC8019370DE
:103DD000D11002C090E080E00E941F0568CFC801AA
:103DE0009370D11002C090E080E00E9435055FCF53
:103DF000812F837009F066C0D11059CF802F829532
:103E000086958770880F880F602F6F70462E512C13
:103E1000712C612C082E04C0440C551C661C771CA8
:103E20000A94D2F740E050E0BA0104FF0FC04FE01F
:103E300050E060E070E004C0440F551F661F771F1C
:103E40008A95D2F74095509560957095812F86950B
:103E500086958370823019F1D8F40091C7041091CF
:103E6000C8042091C9043091CA04813069F0442902
:103E7000552966297729CB01BA0160237123822352
:103E800093230E94230F13CF402A512A622A732AB8
:103E9000CB01BA016429752986299729F2CF4429D3
:103EA0005529662977290091C7041091C8042091EB
:103EB000C9043091CA04CB01BA0160277127822757
:103EC0009327DFCF8695DD2011F0812F8170882325
:103ED00009F4EDCE802F829586958770880F880F24
:103EE000602F6F70462E512C712C612C082E04C04F
:103EF000440C551C661C771C0A94D2F740E050E035
:103F0000BA0104FF0FC04FE050E060E070E004C071
:103F1000440F551F661F771F8A95D2F7409550951D
:103F200060957095812F869586958370823019F102
:103F3000D8F40091060510910705209108053091ED
:103F40000905813069F04429552966297729CB0173
:103F5000BA0160237123822393230E948017A7CE86
:103F6000402A512A622A732ACB01BA016429752991
:103F700086299729F2CF4429552966297729009166
:103F80000605109107052091080530910905CB0120
:103F9000BA016027712782279327DFCF1F70DD20AA
:103FA00029F0812F0E94E817802FCECE802F0E940B
:103FB000FE11812F0E948C177ACE802F32EF83164C
:103FC00009F43FC0381570F040EF8416D1F091EF3E
:103FD000891691F0DD2009F46CC0911016CE812F66
:103FE0008F7133C0A3EF8A1699F1B4EF8B12F2CF21
:103FF0008091640882FF3FC0812F8F71DD20D1F254
:1040000024C0DD20C9F0E4E0E91508F450CE1F71AA
:1040100061E070E080E090E004C0660F771F881FC9
:10402000991F1A95D2F70091060510910705209166
:10403000080530910905ADCFF5E0F91508F437CE44
:10404000E6CF812F8F71D110B5CF0E94E8172FCE08
:1040500060E070E0CB01DD2009F47FCF1F7161E0EB
:1040600070E080E090E004C0660F771F881F991F02
:104070001A95D2F772CFDD2089F01F71812F0E942F
:10408000E8178091640882FD07C028E0129FC001F4
:10409000112483608093A304812FD7CF81E00E94F5
:1040A000AF1731E0391508F002CE82E00E94AF1759
:1040B000FECD992059F0893309F07CCE4FEF87EE81
:1040C00093E0415080409040E1F772CE812F8F7194
:1040D00071CF85E0F701DE01119601900D928A956E
:1040E000E1F7D70112962C9189819A812111A3C9F8
:1040F0000E948C08082FA7C90631BCE51B0709F0F0
:1041000087C080914C0469E2811165E38AE294E002
:104110000E94C004EDCB0B35EDE51E0709F452CD2E
:1041200058F401152CE5120709F42ECD0F3D1C455E
:10413000A1F40E94E90CA5C90C354DE5140709F45A
:1041400043CD0D351D4549F48091640882FB8827D5
:1041500080F991E089270E94CB17F70182811081B5
:104160000181882309F432CD812F902F0E941A08F3
:10417000D82E682F812F902F0E94B508E12FF0E0F4
:1041800026E0029FE00DF11D112430E3D39EE00DE7
:10419000F11D1124EE0FFF1FE25DFE4F85919491FA
:1041A0000E9486068C01882ED7011296DC90129709
:1041B00015969C9092945FE095228091A30487705D
:1041C000C1F0BD2CDD20B1F0812F807F803421F043
:1041D00080E2800F883068F08091640882FD09C019
:1041E00082E00E94AF178091A3048770BB24B39430
:1041F0008111B12CA12EA2943FE0A322BBE0BA15FD
:1042000008F455CDEA2DF0E0E853F04D0C94852BE1
:104210008091C50482720C3C9CE5190709F4A2CC7C
:1042200008F057C0073CBCE51B0709F487CCE0F554
:10423000043CFCE51F0709F475CC40F5033C1C4524
:1042400009F08BCF80914D0880FF64CC8E7F8093E6
:104250004D0860914D0870914E0880914F089091E3
:1042600050080E94EC0B0E9450058091A9078160C4
:104270008093A907FFEF20E732E0F1502040304063
:10428000E1F700C000000E947609FBC8053C4CE540
:10429000140709F44ECC4FE85CE068E97CE0063C8A
:1042A0001C4509F443CC59CF093CACE51A0709F485
:1042B0004FCC08F448CC0A3CECE51E0709F44DCC81
:1042C0004BE65CE06FE57CE00B3C1C4509F42ECC32
:1042D00044CF013D2CE5120709F451CC98F40E3C73
:1042E0004CE5140709F448CC08F441CC0F3CACE58C
:1042F0001A0709F4C6C864E082E0003D1C4509F4D1
:1043000040CC2BCF073DECE51E0788F4043DFCE5CF
:104310001F0708F0B6C8023D2CE5120709F4B1C822
:104320006DE08BE0033D1C4509F42BCC16CF0E3518
:104330001D4509F4A6C811CF1F93CF93DF93809139
:104340007004807FA9F480916D04882389F08091A6
:10435000A204D091710460916B0470916C04A091DF
:104360006E04B0916F04C62FC72316E0D81304C0A3
:10437000DF91CF911F91089590E0109711F0CF3FFA
:1043800019F401968770F2CF189F9001199F300D94
:104390001124F901EE58FB4F41814713F2CF4081C0
:1043A0004613EFCF42814111ECCF438154814A1B28
:1043B0005B0B483C510528F7809170048F70806139
:1043C00080937004F901E958FB4F80818F70806100
:1043D00080838BE694E00E94DC19DF91CF911F91DE
:1043E0000C941008AF92BF92CF92DF92EF92FF929F
:1043F0000F931F93CF93DF93CDB7DEB761970FB6BF
:10440000F894DEBF0FBECDBF8C0185E0F801DE0160
:104410001D9601900D928A95E1F7F801E2808BE6F6
:10442000A82E84E0B82E60916E0470916F0461151F
:10443000710509F432C190916B0440916C04892F8D
:1044400084238F3F09F429C120813181C380D48026
:10445000F0906D04F601E61BF70BFF2009F4E8C0AD
:1044600080917004582F507FE83CF10508F0ABC0F4
:10447000511177C0FE2C431321C092131FC0E110CD
:104480001DC08F70806180937004C5010E94DC198B
:1044900080917004F80185838F2D61960FB6F89492
:1044A000DEBF0FBECDBFDF91CF911F910F91FF9067
:1044B000EF90DF90CF90BF90AF900895CD2829F076
:1044C000822F83238F3F09F003C180E0F82FF17022
:1044D000DF2E80FF3CC08091A2044091710456E021
:1044E000841315C02D873E878D859E850E94710897
:1044F000292F22952F702230F0F0243018F59F706C
:10450000F1F0F8019581907FD1F4D12C1EC090E09C
:10451000589FF001599FF00D1124EE58FB4F618117
:10452000361306C06081261303C06281E6120FC0F5
:1045300001968770D5CF9F7011F0882331F3805E8C
:10454000883018F3C8010E94DC19FD2CA5CFEE209D
:1045500009F4A2CF80917004816080937004F12CE3
:104560009BCF431306C0921304C0F801EE2009F458
:1045700079C0C8010E94E308882309F1EE20F9F010
:1045800080917004803270F020916B0430916C0443
:1045900038872F831986DB86CA868C87CE010796DB
:1045A0000E94DC1986E0F801ABE6B4E001900D92C0
:1045B0008A95E1F70E949C21FF24F3946DCFC801F6
:1045C0000E94DC19F9CF51110AC08BE694E00E94D9
:1045D000DC1986E0F50111928A95E9F7C0CF431303
:1045E0000FC092130DC0E1100BC0F8018583C80104
:1045F0000E94DC1986E0F50111928A95E9F74CCF0B
:10460000C8010E94E3088823D1F2EE20C1F2809114
:104610007004803238F220916B0430916C043A833C
:1046200029831B82DD82CC828E83CE010196B8CF96
:10463000E83CF105F8F6FE2CEE2009F243131FC00A
:1046400092131DC08091700480FD10C0982F907F40
:1046500069F0F8018583903F31F0982F907F905F4B
:104660008F70892B8583C8010E94DC1986E0F801D0
:10467000ABE6B4E001900D928A95E1F70DCFC80149
:104680000E94E30881118ECF809170048160809335
:104690007004C8010E94DC19FFCEEE2009F48FCF10
:1046A000C8010E94E308F82E882309F488CF86E029
:1046B000F801ABE6B4E001900D928A95E1F78091A4
:1046C0006B0490916C040E9471080E949C21E4CEBE
:1046D00081E08E25FBCE1F93CF93DF93CDB7DEB75E
:1046E00067970FB6F894DEBF0FBECDBF4B8B5C8BC8
:1046F0006D8B7E8B8F8B61111092C4041A8A198A7C
:1047000085E0FE017396DE011D9601900D928A955B
:10471000E1F786E0FE013D96DE01179601900D92CD
:104720008A95E1F7CE0107960E94F221882389F04D
:1047300016E08091A20490917104891349C0679694
:104740000FB6F894DEBF0FBECDBFDF91CF911F91A2
:10475000089586E0FE013796DE01119601900D92D4
:104760008A95E1F78A859B85892B11F38F8198853E
:1047700089238F3FE9F22091710430E0C90101964D
:10478000877099274091A2044817190671F40E9476
:104790002D0F109271041092A20486E0EBE6F4E073
:1047A000DF011D928A95E9F7C3CF96E0929FD00171
:1047B000939FB00D1124AE58BB4FFE01319601906E
:1047C0000D929A95E1F7809371040E941008B0CF82
:1047D000819FC00111248E589B4F0E94F221882393
:1047E00009F4ADCF8091A20490E0019687709927DB
:1047F0008093A2049ECF1F921FB61F9211248F9305
:104800009F93AF93BF9380915E08811113C08091F5
:104810005F0890916008A0916108B091620841968C
:10482000A11DB11D80935F0890936008A09361085B
:10483000B0936208BF91AF919F918F911F901FBE5F
:104840001F901895CDB7DEB72C970FB6F894DEBF42
:104850000FBECDBF84B7877F84BF0FB6F894A895ED
:1048600080916000886180936000109260000FBEAC
:1048700080E890E00FB6F894809361009093610017
:104880000FBE85B7806885BF85B7806885BF88E221
:1048900096E090932904809328040E9413030E94B9
:1048A000DE038091E20084608093E200789480913E
:1048B0008D088823A1F01091E9001F709091EC0001
:1048C000892F817090FD80E8182B1092E90080916B
:1048D000E80083FD0E94420F1F701093E90082E000
:1048E00084BD93E095BD9AEF97BD80936E001092C2
:1048F000F8041092F9041092FA041092FB040E943A
:104900002B0B8093990280919902882309F473C03C
:104910001092A9038BE18093AA030E942B0B8111B3
:104920000E94D829809199028091990294E0811186
:1049300090E09093050584E0891B8093040584E949
:104940000E942C0686E60E942C0687E90E942C060F
:1049500086EC0E942C060BE014E0A1E1EA2EA4E014
:10496000FA2ED8018D918D018F3F11F00E942C06F7
:10497000E016F106B1F788E0EDE0F5E0DF01282F61
:104980001D922A95E9F7ECEFF4E0DF011D928A957C
:10499000E9F790E080E00E94CB2B893E9E4F11F01A
:1049A0000E94E90C82E090E00E94BD2B80931505E7
:1049B0000E94DB0C90936408809363080E9409189E
:1049C000EFE3FCE93197F1F700C000000E940918FD
:1049D0000E942B0BE4E08111E0E0F0E0E35FFA4F8E
:1049E000808181FF0CC06FEF7FEF90E080E00E943C
:1049F000EF2B0E94A3048BE18093A9038CCF83E06B
:104A000090E00E94BD2B682F70E090E080E00E9453
:104A1000230F60910605709107058091080590911C
:104A200009050E9402170E946B141092570780E834
:104A3000809336050E9470286DE070E081E893E075
:104A40000E94790B892BC9F58091570763E070E0CC
:104A500081FDE1C08EE793E00E94790B892B69F517
:104A60006DE070E08EE693E00E94790B892B29F5CA
:104A70000E94B404605A75418F4F9F4F6093520853
:104A8000709353088093540890935508E7E5F5E038
:104A900080E092E0DF019C011D9221503040E1F75F
:104AA0008FEF9FEF90935A078093590781E080938F
:104AB0005708809356081092580780910A05811173
:104AC0003BC090E080E00E94CB2B893E9E4F21F0BE
:104AD0000E94E90C0E94C30C88E090E00E94C52B64
:104AE00060934D0870934E0880934F089093500840
:104AF0008091A90783608093A9076E7F71F40E945B
:104B0000C30C88E090E00E94C52B60934D08709321
:104B10004E0880934F08909350080E9457050E94BA
:104B2000500580914D0880FF04C060E086950E948A
:104B3000A11681E080930A050E942B0B811102C00F
:104B40000E94DB298AE992E090935B0880935A08DF
:104B5000F0E46F2EFF24F39480918D0800E112E1C0
:104B6000853009F4A6C00E940918E82E81110E9420
:104B7000B404ADE0B5E0E6E1F5E010E000E0A02E21
:104B8000CD9081918C1509F4B4C08C25B12CDD2415
:104B9000D394982F9D2109F4A7C00E942B0B882342
:104BA00099F0B982AA82CD2081E009F480E08B835C
:104BB0000E94F8138160782F9D838C8349815A81EC
:104BC0006B818D810E946B23F801EA5EFA4F808130
:104BD000D826D0820E942B0B882309F4ABC0809189
:104BE0003205882309F4A6C08091300590913105E3
:104BF000009709F095C00E94F813909331058093B7
:104C0000300580912F05282F30E0882309F440C11A
:104C1000C901019741C18BE793E01ECF80918D08B8
:104C2000843009F436C00E9403060E94500580912A
:104C30000C05811109C0F0920C0580914D0881701E
:104C400080930B050E94D00A0E94A90B10925E0867
:104C500088E190E00FB6F894A895809360000FBEAD
:104C60006092600083B7817F846083BF83B7816077
:104C700083BF7894889583B78E7F83BF0FB6F894EF
:104C8000A895809160008861809360001092600018
:104C90000FBE80918C08882361F00E940918EDE016
:104CA000F5E08191811106C2A5E1B5E0AE17BF071D
:104CB000C1F780918D08853009F4B0CF0E942D0F87
:104CC0000E944E0B10920C0580910B05882349F031
:104CD00080914D08816080934D0860E086950E9428
:104CE000A1160E9486163FCFB394DD0C26E0B212C7
:104CF00050CF0F5F1F4F0830110509F040CF8FEFE5
:104D00008E838F8318860E94F8138160782F9A878C
:104D100089874E815F8168858A850E946B235ACF7F
:104D20000E94E9132091A6023091A70228173907A3
:104D300008F461CF8091A807882309F463C08091AB
:104D4000A707E0914D08E695E81BE093A3078230A2
:104D500009F0C3C0F0E0EC56FC4FE4910E2F10E0D8
:104D6000E4EACE2EEAE0DE2E8091A407882361F0EB
:104D70001092A4070E947D169093A2078093A1072A
:104D80001092A6071092A5070E947D16E091A10738
:104D9000F091A2079C012E1B3F0B2F3F3F4790F540
:104DA000209135052223B1F010923505209133056D
:104DB00030913405821B930B8F3F9F4758F4205D41
:104DC0003A4830933405209333058091A9078860D1
:104DD0008093A907A090A507B090A6070E0F1F1FEC
:104DE0001093A2070093A10781EA97E0F6010995C5
:104DF0008091A5079091A607892B21F4AB2811F08B
:104E0000F0923505809157088823A9F180915B07BE
:104E100090915C070E94E913C29730F00E94F8134A
:104E200090935C0780935B072091590730915A0754
:104E30002115310539F08091580761E070E0882331
:104E400009F46EC0809156088823A9F00E94B4042A
:104E50000091520810915308209154083091550840
:104E6000601B710B820B930B6F3F7F4F8F4F9F47E0
:104E700010F40E94A90BE1100E94C40B0E944E0B7B
:104E800090915D07891709F467CE80935D0764CE22
:104E900080912E058150990B40919F07442389F002
:104EA000225E3A4FD9011C91825E9A4FFC018081AB
:104EB0000E94F21580919F07882319F0812F0E948C
:104EC000D21580912F0590E0019660912E0570E03B
:104ED0000E944F2B80932F052DCF853061F4E695EE
:104EE000F0E0EF56FC4FE4910E2F10E07BE4C72E6C
:104EF0007AE0D72E39CF00ED17E05EE9C52E54E0F9
:104F0000D52E8B3009F030CFF0E0E257FC4FE49122
:104F10000E2F10E061ECC62E69E0D62E25CF8F5FF4
:104F2000082F10E02B01082E02C0440C551C0A94D7
:104F3000E2F7A90144215521452B89F390915707A8
:104F400090FD44C08295880F80768093AA029801D4
:104F500036952795369527952093AD02815E8093EF
:104F6000AB021092AE0224E630E047E050E068EA7F
:104F700072E088E70E941F29892B09F063CFA801FE
:104F800095E0440F551F9A95E1F78091570780FDF2
:104F90002BC0495A5A4F04E610E020E230E060E4AA
:104FA00088E70E944629892B09F04CCF0E94C40B48
:104FB000C201809590954090590750905A07482219
:104FC000592250925A07409259073CCF880F880FB8
:104FD000880F8093AA021092AD02895F8093AB0282
:104FE00083E08093AE02BFCFE7E3F5E080E2DF012C
:104FF0001D928A95E9F7E5E1F4E0FC87EB8701E192
:1050000014E087E0A82E99249394AB85BC852D915C
:10501000BC87AB87F80121908F01240E352E311CFF
:10502000C101895A9A4F1C01E22FF0E0E95CFA4F66
:1050300030E020E07A2C721AB92C022E01C0BB0C91
:105040000A94EAF7610190E0D6018D916D018B2100
:10505000672D691B6770862E062E000C770BB82F04
:1050600001C0BB0F8A94EAF78B2E71956195710987
:105070006770772701C086956A95EAF7882A80814C
:10508000882A80829F5F9830F9F62F5F3F4F3196D4
:105090002830310579F6E9E1F4E02B853C85E2170B
:1050A000F30709F0B2CF04E610E020E230E047E376
:1050B00055E075CF09BD19BD09B400FEFDCF809143
:1050C000D8008F7D8093D8008091E000826080932B
:1050D000E0008091E00081FDFCCF0E942D0FE9CD22
:1050E0001092B9008CE08093B80008959F92AF921F
:1050F000BF92CF92DF92EF92FF920F931F93CF93C5
:10510000DF93B82EEB010E94F8136C01EE24E394B8
:10511000F12CC431D10560F025E0E22EF12CCF3F17
:10512000DC0731F0CE0164E170E00E943B2B7B0193
:1051300084EAA82E94E8992E1092BC00A092BC009C
:105140000E94F8138C018091BC0087FF0DC08091F4
:10515000B900887F883039F18091B900887F80312B
:1051600011F10FEF1FEF09C00E94F813801B910B84
:105170008E159F0540F30EEF1FEFCF3FDC07E1F2E6
:10518000C6010E94E9138C179D07B0F2C801DF9198
:10519000CF911F910F91FF90EF90DF90CF90BF9034
:1051A000AF909F900895B092BB009092BC000E9477
:1051B000F8138C018091BC0087FF0AC08091B90070
:1051C000887F883111F0803461F610E000E0DECF96
:1051D0000E94F813801B910B8E159F0558F3CBCFBF
:1051E0000F931F93CF93DF93EB018093BB0084E871
:1051F0008093BC000E94F8138C018091BC0087FF53
:1052000011C02091B900287F81E090E0283211F48C
:1052100090E080E0919581959109DF91CF911F9168
:105220000F910895CF3FDC0741F30E94F813801BD4
:10523000910B8C179D0708F38EEF9FEFEECFCF9267
:10524000DF92EF92FF920F931F93CF93DF936B0147
:105250008A017901B9010E947628E6010C0D1D1D15
:10526000C017D10761F424E92093BC00DF91CF91EE
:105270001F910F91FF90EF90DF90CF90089597FDD1
:10528000F2CFB70189910E94F028EACFCF92DF9246
:10529000EF92FF920F931F93CF93DF93C62F6A0174
:1052A0007901B8010E94762897FD0CC0B8018C2FB7
:1052B0000E94F028E601EC0CFD1CCE15DF0511F074
:1052C00097FF0CC024E92093BC00DF91CF911F9180
:1052D0000F91FF90EF90DF90CF900895B8018991E2
:1052E0000E94F028EACF84E98093BC0008958EE103
:1052F0004A9B02C08150E1F74A9BFECF08955A981D
:1053000080E28A95F1F75A9A0895FC013BE03A95BC
:10531000F1F798E020E080E031E040E14A95F1F7D4
:10532000880F4A9B02C08160232742E04A95F1F72B
:10533000000040E14A95F1F7915079F790E19A9594
:10534000F1F799B132E03A95F1F7000040E14A9562
:10535000F1F792FB992790F992272081920F908381
:105360000895EF92FF920F931F93CF93DF930F92C5
:10537000CDB7DEB719828C017C01E60EF11C0E154B
:105380001F0561F481E09981911180E00F90DF9118
:10539000CF911F910F91FF90EF9008950E94772970
:1053A000CE0101960E948529F80181938F01E7CFF4
:1053B000529A5A9A089552985A9AEA9AE9E6F0E06F
:1053C00080818F7C808308956150770B91E001C0CC
:1053D000990F6A95EAF720E031E0911108C0222385
:1053E00091F05A9A80E28A95F1F75A980895492FD8
:1053F000482339F05A9A232740E24A95F1F79695C7
:10540000ECCF5A98F9CF5A98EDCFFF920F931F9394
:10541000CF93DF93EC018C01060F111DC017D1074C
:1054200031F4DF91CF911F910F91FF900895F99082
:105430000E947F2968E08F2D0E94E429EFCF1F9200
:105440000F920FB60F9211240F931F932F933F9338
:105450004F935F936F937F938F939F93AF93BF937C
:10546000EF93FF93CF93DF930F92CDB7DEB71982FF
:105470000E947729CE0101960E948529082F069562
:1054800006950695282F22952570902F9570290F47
:10549000922F937026952695920F98279770898161
:1054A000982B09F05CC0053008F059C080E18A955E
:1054B000F1F75A9A529A82E08A95F1F700C05A9809
:1054C00088E0089F80011124D801A758BD4F169687
:1054D000ED91FC9117973097A9F0609105047091B8
:1054E000060414962D913C911597260F371F11969F
:1054F0008D919C911297680F791F13964C91139779
:105500008C910995F801E758FD4F6381662351F0AE
:10551000209105043091060484819581820F931FA8
:105520000E94052A0E947F2980E18A95F1F75A9806
:1055300052985A9A80E18A95F1F7F801E758FD4FA1
:105540006081662351F02091050430910604818129
:105550009281820F931F0E94B1290E9477290F9098
:10556000DF91CF91FF91EF91BF91AF919F918F917B
:105570007F916F915F914F913F912F911F910F916B
:105580000F900FBE0F901F9018950F931F93CF93FE
:10559000DF93EC0105970CF04CC0F894529A5A989E
:1055A00085E08A95F1F700009C2F969595708C2FD9
:1055B0008570980F892F83709695969523E0CC0F70
:1055C000DD1F2A95E1F7980F8E01092B0E947F2994
:1055D00000C068E0802F0E94E42980E18A95F1F7FD
:1055E00052985A9A4A9B1EC087E090E04A991CC084
:1055F000FE01E758FD4F63816623F9F02091050411
:105600003091060484819581820F931F0E94B129F5
:10561000811113C0529A5A9A7894DF91CF911F91B9
:105620000F91089500C0DECF019729F4529A5A9A3B
:10563000789480E0F2CF00C0D9CF0E94772980E231
:105640008A95F1F75A98529A80E18A95F1F7C758EE
:10565000DD4F6881662351F02091050430910604E6
:1056600089819A81820F931F0E94052A0E947F29B7
:10567000789481E0D2CFAA1BBB1B51E107C0AA1FBF
:10568000BB1FA617B70710F0A61BB70B881F991FE3
:105690005A95A9F780959095BC01CD01089597FB87
:1056A000072E16F4009407D077FD09D00E943B2BFB
:1056B00007FC05D03EF4909581959F4F0895709515
:1056C00061957F4F0895A1E21A2EAA1BBB1BFD0115
:1056D0000DC0AA1FBB1FEE1FFF1FA217B307E407D1
:1056E000F50720F0A21BB30BE40BF50B661F771F29
:1056F000881F991F1A9469F7609570958095909509
:105700009B01AC01BD01CF010895EE0FFF1F059075
:10571000F491E02D0994A29FB001B39FC001A39F13
:10572000700D811D1124911DB29F700D811D1124DA
:10573000911D0895FC014150504030F00190061633
:10574000D1F73197CF010895882799270895FB0154
:10575000DC0104C08D910190801921F4415050402A
:10576000C8F7881B990B0895FB01DC0102C001906A
:105770000D9241505040D8F70895F999FECF92BD4F
:1057800081BDF89A992780B50895A6E1B0E044E07C
:1057900050E00C94F72BA8E1B0E042E050E00C940C
:1057A000F72B262FF999FECF92BD81BDF89A01976C
:1057B00000B4021639F01FBA20BD0FB6F894FA9A59
:1057C000F99A0FBE08950396272F0E94D22B0E94AC
:1057D000D12B252F0E94D22B242F0C94D22B019653
:1057E000272F0E94D22B0C94D12BDC01CB01FC0182
:1057F000F999FECF06C0F2BDE1BDF89A319600B42A
:105800000D9241505040B8F708950E94E82C08F4DA
:1058100081E008950E941E2C0C94232D0E941C2DC3
:1058200058F00E94152D40F029F45F3F29F00C94A8
:105830000C2D51110C94572D0C94122D0E94342DC7
:1058400068F39923B1F3552391F3951B550BBB27AF
:10585000AA2762177307840738F09F5F5F4F220FF4
:10586000331F441FAA1FA9F335D00E2E3AF0E0E8EB
:1058700032D091505040E695001CCAF72BD0FE2F35
:1058800029D0660F771F881FBB1F261737074807C9
:10589000AB07B0E809F0BB0B802DBF01FF27935881
:1058A0005F4F3AF09E3F510578F00C940C2D0C940C
:1058B000572D5F3FE4F3983ED4F38695779567952F
:1058C000B795F7959F5FC9F7880F911D96958795B6
:1058D00097F90895E1E0660F771F881FBB1F6217D5
:1058E00073078407BA0720F0621B730B840BBA0B93
:1058F000EE1F88F7E09508950E943C2D88F09F5791
:1059000098F0B92F9927B751B0F0E1F0660F771FE3
:10591000881F991F1AF0BA95C9F714C0B13091F0D9
:105920000E94562DB1E008950C94562D672F782FC4
:105930008827B85F39F0B93FCCF38695779567959E
:10594000B395D9F73EF490958095709561957F4F0A
:105950008F4F9F4F0895E89409C097FB3EF49095B0
:105960008095709561957F4F8F4F9F4F9923A9F038
:10597000F92F96E9BB279395F695879577956795C7
:10598000B795F111F8CFFAF4BB0F11F460FF1BC00B
:105990006F5F7F4F8F4F9F4F16C0882311F096E99E
:1059A00011C0772321F09EE8872F762F05C066234C
:1059B00071F096E8862F70E060E02AF09A95660F05
:1059C000771F881FDAF7880F9695879597F90895BE
:1059D000990F0008550FAA0BE0E8FEEF1616170600
:1059E000E807F907C0F012161306E407F50798F068
:1059F000621B730B840B950B39F40A2661F0232B81
:105A0000242B252B21F408950A2609F4A140A695FC
:105A10008FEF811D811D089597F99F6780E870E0E1
:105A200060E008959FEF80EC089500240A94161614
:105A3000170618060906089500240A94121613067C
:105A4000140605060895092E0394000C11F488230A
:105A500052F0BB0F40F4BF2B11F460FF04C06F5F26
:105A60007F4F8F4F9F4F089557FD9058440F551FFC
:105A700059F05F3F71F04795880F97FB991F61F0D0
:105A80009F3F79F087950895121613061406551F47
:105A9000F2CF4695F1DF08C0161617061806991FB3
:105AA000F1CF86957105610508940895E894BB27A8
:105AB00066277727CB0197F908950E94702D0C94E3
:105AC000232D0E94152D38F00E941C2D20F09523C7
:105AD00011F00C940C2D0C94122D11240C94572DB4
